:0400000085EF00F098
:100008002648264826482648264826482648264878
:100018002648264826482648264826482648264868
:100028002648264826482648264826482648264858
:100038002648264826482648264826482648264848
:100048002648264826482648264826482648264838
:100058002648264826482648264826482648264828
:100068002648264826482648264826482648264818
:100078002648264826482648420026482648264834
:1000880026482648264826482648264826482648F8
:100098002648264826482648420026482648264814
:1000A80026482648264826482648264826482648D8
:1000B80026482648264826482648264826482648C8
:1000C80026482648264826482648264826482648B8
:1000D80026482648264826482648264826482648A8
:1000E80042002648264826482648264826482648C4
:1000F8002648264826482648264826482648264888
:06010800FF00B0EF8FF0D4
:10BFE00000F3C30020FFFFFFFFC3A700FFFFFFFF19
:10BFF000FFC37900FFFFFFFFFFC3B300FFFFFFFF99
:10C00000FFFFFFFFFFFFFFFFFFC32026FFFFFFFF34
:10C01000FFC3F523FFFFFFFFFFC33B00F5E5DB0197
:10C02000E602CA7500DB00F53A4380FE3FC25300CA
:10C03000F1C375002A3F80237DFE3FC260002100CE
:10C0400080223F80F1773A43803C324380FE30DAF1
:10C0500075003E17D301E1F1FBC93A4380FE00CAE7
:10C060007900E52A4180237DFE3FC28F00210080B8
:10C07000F32241803A43803D324380FE05D2A30043
:10C080003E37D3017EFBE1C9F5DB01E601CAA8001A
:10C09000F1D300C93A4380FE00C921ED80F92100A7
:10C0A00080223F80224180AF324380D301D301D32D
:10C0B000013E40D30100003E4ED30100003E37D385
:10C0C00001FBC3E400C3EA00C35F01C3F100B00990
:10C0D0002711214580F9C3591D11CF03066321455E
:10C0E000801A77231305C20001F9CDD005CDA60B28
:10C0F00032EF80323E8121A281237CB5CA27017EA6
:10C10000472F77BE70CA18012B11A181CD6607DABF
:10C11000680111CEFF22F48019229F80CDAB052A41
:10C120009F8011EFFF19113E817D936F7C9A67E527
:10C13000218001CD4512E1CDEA18217101CD4512D2
:10C1400031AB80CDD005C3E90421BD01CD4512C37B
:10C150006E0120427974657320667265650D0A0070
:10C1600000494E54454C3830383020424153494301
:10C170002056657220342E37620D0A436F70797233
:10C18000696768742028432920313937382062795B
:10C19000204D6963726F736F66740D0A00004D6500
:10C1A0006D6F72792073697A65206E6F7420656E89
:10C1B0006F7567680D0A5468652073797374656DCF
:10C1C0002069732073746F707065642E0D0A00000F
:10C1D0005F1723187517488005118C143311E9195E
:10C1E000C81A0416371A3D1B431BA41BB91BE014C5
:10C1F000261C9680B713CF115114C613D713481CB1
:10C20000E51CE71317142114C54E44C64F52CE4502
:10C210005854C4415441C94E505554C4494DD24557
:10C220004144CC4554C74F544FD2554EC946D245D0
:10C2300053544F5245C74F535542D2455455524E11
:10C24000D2454DD3544F50CF5554CF4ECE554C4C74
:10C25000D7414954C44546D04F4B45C44F4B45D3B5
:10C26000435245454ECC494E4553C34C53D74944A0
:10C270005448CD4F4E49544F52D34554D24553455F
:10C2800054D052494E54C34F4E54CC495354C34CCE
:10C29000454152C34C4F4144C353415645CE455787
:10C2A000D4414228D44FC64ED3504328D448454E9B
:10C2B000CE4F54D3544550ABADAAAFDEC14E44CFA0
:10C2C00052BEBDBCD3474EC94E54C14253D5535242
:10C2D000C65245C94E50D04F53D35152D24E44CC82
:10C2E0004F47C55850C34F53D3494ED4414EC15404
:10C2F0004ED045454BC445454BD04F494E54CC4597
:10C300004ED3545224D6414CC15343C3485224C83F
:10C31000455824C2494E24CC45465424D249474866
:10C320005424CD4944248048094108200D950A270A
:10C330000C5D0F560CAC0A520A350A240B0A09414F
:10C340000A700A970A46099814060B87099E143B3F
:10C3500011E714311C970A151C081C0D1C561D9959
:10C36000809C80480B7409B207EF09970A970AAAC4
:10C370000579D1187905157C43167CA4167FF2192E
:10C3800050B60E46B50E4E46534E52474F444643A6
:10C390004F564F4D554C425344442F304944544D11
:10C3A0004F534C535354434E55464D4F4858424EAD
:10C3B000C35F01C3C509D300C9D6006F7CDE006727
:10C3C00078DE00473E00C9000000354ACA99391C92
:10C3D00076982295B3980ADD479853D199990A1A0D
:10C3E0009F9865BCCD98D6773E9852C74F80DB00AA
:10C3F000C901FF1C00001400140000000000C3E38A
:10C4000006C30000C30000C30000A281FEFF3F81FD
:10C41000204572726F720020696E20004F6B0D0A0A
:10C420000000427265616B00210400397E23FE81A9
:10C43000C04E234623E569607AB3EBCA6104EBCDB5
:10C440006607010D00E1C809C34B04CD8404C5E3B0
:10C45000C1CD66077E02C80B2BC37004E52A1F817D
:10C46000060009093EE53ED0956F3EFF9CDA930435
:10C470006739E1D81E0CC3B2042A0E8122A1801EA6
:10C4800002011E14011E00011E12011E22011E0ABD
:10C49000011E18CDD005328A80CD990B21A50357F6
:10C4A0003E3FCD7707197ECD7707CDFA08CD7707C8
:10C4B000212F04CD45122AA18011FEFFCD6607CAA7
:10C4C000F1007CA53CC4E2183EC1AF328A80CD9910
:10C4D0000B213B04CD451221FFFF22A180CDE306B5
:10C4E000DAF604CDFA083C3DCAF604F5CDCA09D502
:10C4F000CDFA0547D1F1D2DA08D5C5AF321181CDD9
:10C50000FA08B7F5CD8A05DA2F05F1F5CA6B0AB737
:10C51000C5D24605EB2A1B811A020313CD6607C25A
:10C5200037056069221B81D1F1CA6D052A1B81E3A1
:10C53000C109E5CD6A04E1221B81EB74D123237389
:10C5400023722311A6801A772313B7C26505CDB6CF
:10C550000523EB626B7E23B6CAF604232323AFBE0A
:10C5600023C27E05EB732372C372052AA380444D58
:10C570007E23B62BC823237E23666FCD66076069B2
:10C580007E23666F3FC83FD0C38D05C02AA380AF0E
:10C5900077237723221B812AA3802B2213812AF45D
:10C5A00080220881AFCD0A092A1B81221D81221F0A
:10C5B00081C12A9F80F921F88022F680AF6F67221F
:10C5C0001981321081222381E5C52A1381C93E3F9A
:10C5D000CD77073E20CD7707C39380AF32F3800E2F
:10C5E0000511A6807EFE20CA820647FE22CAA20648
:10C5F000B7CAA9063AF380B77EC28206FE3F3E9EC6
:10C60000CA82067EFE30DA2D06FE3CDA8206D5119D
:10C610002602C5017E06C5067F7EFE61DA4606FE5D
:10C620007BD24606E65F774EEB23B6F24806047EE1
:10C63000E67FC8B9C24806EBE5131AB7FA7A064F87
:10C6400078FE88C26906CDFA082B237EFE61DA7275
:10C6500006E65FB9CA5806E1C3460648F1EBC9EBE6
:10C6600079C1D12312130CD63ACA9006FE49C2935F
:10C670000632F380D654C20306477EB7CAA906B86D
:10C68000CA820623120C13C3990621A58012131225
:10C690001312C93A8980B73E00328980C2C60605A6
:10C6A000CAE306CD77073E052BCADA067ECD7707AB
:10C6B000C3EC06052BCD7707C2EC06CD7707CDA6D8
:10C6C0000BC3E30621A6800601AF328980CDA10706
:10C6D0004FFE7FCAB2063A8980B7CA05073E00CD31
:10C6E0007707AF32898079FE07CA4907FE03CCA6D7
:10C6F0000B37C8FE0DCAA10BFE15CADD06FE40CAE7
:10C70000DA06FE5FCAD206FE08CAD206FE12C2448C
:10C7100007C5D5E53600CD681D21A680CD4512E1BF
:10C72000D1C1C3EC06FE20DAEC0678FE493E07D202
:10C730005E0779713211812304CD7707C3EC06CDF2
:10C7400077073E08C358077C92C07D93C97EE3BE3D
:10C7500023E3CAFA08C39E04F53A8A80B7C27A1264
:10C76000F1C5F5FE20DA9B073A8780473AF080044E
:10C77000CA970705B8CCA60B3C32F080F1C1CD5367
:10C780001DC9CD061CE67FFE0FC03A8A802F328A73
:10C7900080AFC9CDCA09C0C1CD8A05C5CD0808E1A1
:10C7A0004E23462378B1CAE904CD1108CD2509C529
:10C7B000CDA60B5E235623E5EBCDEA183E20E1CD56
:10C7C00077077EB723CABE07F2DE07D67F4F112751
:10C7D000021A13B7F2F0070DC2F007E67FCD770714
:10C7E0001A13B7F2FA07C3E107E52A8D80228B807E
:10C7F000E1C9E5D52A8B8011FFFF7B8D6F7A8C67AD
:10C80000228B80D1E1F0E52A8D80228B80CD061C21
:10C81000FE03CA3808E1C311082A8D80228B80C329
:10C8200062013E64321081CDAC0AC1E5CD950A2289
:10C830000C8121020039CD4B04D1C2710809D52BDE
:10C84000562B5E2323E52A0C81CD6607E1C25508ED
:10C85000D1F9EB0E08CD7B04E52A0C81E3E52AA192
:10C8600080E3CD6E0DCD6C07A6CD6B0DE5CD9C178D
:10C87000E1C5D5010081515A7EFEAB3E01C2AD0833
:10C88000CDFA08CD6B0DE5CD9C17CD5017E1C5D580
:10C89000F533E52A1381E30681C533CD250922133B
:10C8A000817EFE3ACADA08B7C29E04237E23B6CA46
:10C8B0005009235E2356EB22A180EBCDFA0811BA72
:10C8C00008D5C8D680DAAC0AFE25D29E04074F06EA
:10C8D00000EB214603094E2346C5EB237EFE3AD0EA
:10C8E000FE20CAFA08FE303F3C3DC9EB2AA380CAAD
:10C8F0001F09EBCDCA09E5CD8A056069D1D26B0A63
:10C900002B222181EBC9DFC8D7FE1BCA4109FE03D8
:10C91000CA4109FE13C0D7FE11C8FE03CA4609C3A7
:10C9200035093EFF329280C0F6C022138121F6FF06
:10C93000C12AA180F57DA43CCA63092217812A136C
:10C9400081221981AF328A80CD990BF1214104C235
:10C95000D204C3E9042A19817CB51E20CAB204EBB3
:10C960002A178122A180EBC9CDCF14C0328680C99D
:10C97000E52A8F8006004F09228F80E1C97EFE41A3
:10C98000D8FE5B3FC9CDFA08CD6B0DCD5017FAC567
:10C99000093A2C81FE90DAF817018090110000E529
:10C9A000CDCB17E151C81E08C3B2042B110000CD36
:10C9B000FA08D0E5F5219819CD6607DA9E04626B76
:10C9C00019291929F1D6305F160019EBE1C3CE09F8
:10C9D000CABA05CDA7092BCDFA08E52AF480CA12F8
:10C9E0000AE1CD6C072CD5CDA7092BCDFA08C29E44
:10C9F00004E3EB7D935F7C9A57DA9304E52A1B816D
:10CA000001280009CD6607D29304EB229F80E12222
:10CA1000F480E1C3BA05CAB605CDBA0501BA08C3A8
:10CA2000510A0E03CD7B04C1E5E52AA180E33E8CCB
:10CA3000F533C5CDCA09CD970AE52AA180CD660791
:10CA4000E123DC8D05D48A0560692BD81E0EC3B2A4
:10CA500004C016FFCD4704F9FE8C1E04C2B204E1E7
:10CA600022A180237CB5C28F0A3A1181B7C2E804A3
:10CA700021BA08E33EE1013A0E0006007948477EFC
:10CA8000B7C8B8C823FE22CA9B0AC39E0ACD620F4C
:10CA9000CD6C07B4D53AF280F5CD7D0DF1E32213CC
:10CAA000811FCD700DCAFF0AE52A2981E523235E87
:10CAB00023562AA380CD6607D2EE0A2A9F80CD6630
:10CAC00007D1D2F60A210481CD6607D2F60A3ED1FB
:10CAD000CDA613EBCDDF11CDA613E1CDAB17E1C988
:10CAE000E5CDA817D1E1C9CDCF147E47FE8CCA157C
:10CAF0000BCD6C07882B4B0D78CAE208CDCB09FE15
:10CB00002CC0C3160BCD7D0D7EFE88CA320BCD6CBA
:10CB100007A92BCD6E0DCD5017CA970ACDFA08DAAA
:10CB2000520AC3E1082BCDFA08CAA60BC8FEA5CA53
:10CB3000D90BFEA8CAD90BE5FE2CCAC20BFE3BCA14
:10CB4000FC0BC1CD7D0DE53AF280B7C2920BCDF55D
:10CB500018CD031236202A2981342A29813A878068
:10CB60004704CA8E0B043AF080863DB8D4A60BCD9C
:10CB70004812AFC44812E1C3440B3AF080B7C8C3AF
:10CB8000A60B360021A5803E0DCD77073E0ACD7756
:10CB900007AF32F0803A86803DC8F5AFCD7707F118
:10CBA000C3B70B3A8880473AF080B8D4A60BD2FCC2
:10CBB0000BD60ED2D00B2FC3F10BF5CDCC14CD6C10
:10CBC00007292BF1D6A8E5CAEC0B3AF0802F83D2C7
:10CBD000FC0B3C473E20CD770705C2F50BE1CDFAB3
:10CBE00008C34B0B3F5265646F2066726F6D2073F4
:10CBF000746172740D0A003A1281B7C29804C1219F
:10CC0000030CCD4512C3E905CDB0117EFE223E00D6
:10CC1000328A80C2410CCD0412CD6C073BE5CD4871
:10CC2000123EE5CDED05C1DA4D09237EB72BC5CA0D
:10CC3000940A362CC35B0CE52A2181F6AF321281AF
:10CC4000E3C3670CCD6C072CCD620FE3D57EFE2CC1
:10CC5000CA8F0C3A1281B7C2FC0C3E3FCD7707CD8C
:10CC6000ED05D1C1DA4D09237EB72BC5CA940AD58B
:10CC70003AF280B7CAB90CCDFA085747FE22CAADBE
:10CC80000C3A1281B757CAAA0C163A062C2BCD07BC
:10CC900012EB21C40CE3D5C3C70ACDFA08CD57184F
:10CCA000E3CDA817E12BCDFA08CAD00CFE2CC21692
:10CCB0000CE32BCDFA08C2630CD13A1281B7EBC258
:10CCC0002009D5B621EB0CC44512E1C93F45787463
:10CCD00072612069676E6F7265640D0A00CD950AF6
:10CCE000B7C2150D237E23B61E06CAB204235E23E7
:10CCF00056EB220E81EBCDFA08FE83C2FC0CC38FEB
:10CD00000C110000C4620F221381CD4704C2A40499
:10CD1000F9D57E23F5D5CD8E17E3E5CDFB14E1CD16
:10CD2000A817E1CD9F17E5CDCB17E1C190CD9F1797
:10CD3000CA5B0DEB22A1806960C3B608F92A138192
:10CD40007EFE2CC2BA08CDFA08CD230DCD7D0DF69E
:10CD5000373AF2808FB7E8C3B004CD6C07282B16A2
:10CD600000D50E01CD7B04CDF40D2215812A15814D
:10CD7000C178FE78D46E0D7E1600D6B3DAB50DFEFE
:10CD800003D2B50DFE0117AABA57DA9E04220A8112
:10CD9000CDFA08C3990D7AB7C2DD0E7E220A81D67C
:10CDA000ACD8FE07D05F3AF2803DB37BCA3B130795
:10CDB000835F219003197856BAD023CD6E0DC5013B
:10CDC0008C0DC5434ACD811758514E234623C52AA1
:10CDD0000A81C3800DAF32F280CDFA081E24CAB298
:10CDE00004DA5718CD9C09D25C0EFE26C2200ECD67
:10CDF000FA08FE48CAA31CFE42CA1F1D1E02CAB280
:10CE000004FEACCAF40DFE2ECA5718FEADCA4B0E76
:10CE1000FE22CA0412FEAACA3D0FFEA7CA6811D696
:10CE2000B6D26D0ECD790DCD6C0729C9167DCD809A
:10CE30000D2A1581E5CD7917CD6E0DE1C9CD620FB3
:10CE4000E5EB2229813AF280B7CC8E17E1C90600C2
:10CE5000074FC5CDFA0879FE31DA940ECD790DCDA4
:10CE60006C072CCD6F0DEB2A2981E3E5EBCDCF14B8
:10CE7000EBE3C39C0ECD430EE311570ED501EF013A
:10CE8000094E236669E915FEADC8FE2DC814FE2BB8
:10CE9000C8FEACC82BC9F6AFF5CD6E0DCDB009F10B
:10CEA000EBC1E3EBCD9117F5CDB009F1C1792126A6
:10CEB00011C2D80EA34F78A2E9B34F78B2E921EF9F
:10CEC0000E3AF2801F7A175F166478BAD0C3DD0D70
:10CED000F10E79B71FC1D1F5CD700D21330FE5CA21
:10CEE000CB17AF32F280D5CD88137E23234E234655
:10CEF000D1C5F5CD8C13CD9F17F157E17BB2C87A20
:10CF0000D601D8AFBB3CD0151D0ABE2303CA1B0FE8
:10CF10003FC35B173C8FC1A0C6FF9FC36217165A61
:10CF2000CD800DCD6E0DCDB0097B2F4F7A2FCD2644
:10CF300011C1C38C0D2BCDFA08C8CD6C072C015440
:10CF40000FC5F6AF32F18046CD9C09DA9E04AF4F93
:10CF500032F280CDFA08DA7E0FCD9C09DA8B0F4FC2
:10CF6000CDFA08DA7F0FCD9C09D27F0FD624C29A62
:10CF70000F3C32F2800F814FCDFA083A10813DCA42
:10CF80004710F2AA0F7ED628CA1F10AF321081E5D3
:10CF900050592A2381CD6607112581CA91162A1D71
:10CFA00081EB2A1B81CD6607CADD0F799623C2D299
:10CFB0000F789623CA111023232323C3C40FE1E360
:10CFC000D5115F0ECD6607D1CA1410E3E5C5010681
:10CFD000002A1F81E509C1E5CD6A04E1221F8160B5
:10CFE00069221D812B3600CD6607C20310D1732341
:10CFF0007223EBE1C9322C81213A04222981E1C953
:10D00000E52AF180E357D5C5CDA409C1F1EBE3E5ED
:10D01000EB3C577EFE2CCA2510CD6C0729221581CA
:10D02000E122F1801E00D511E5F52A1D813E19EBA4
:10D030002A1F81EBCD6607CA7F107EB923C261101B
:10D040007EB8235E235623C24D103AF180B7C2A7A3
:10D0500004F1444DCA911696CADD101E10C3B204E5
:10D06000110400F1CAC509712370234FCD7B04233D
:10D0700023220A8171233AF1801779010B00D2A291
:10D0800010C10371237023F5E5CD3C18EBE1F13DB0
:10D09000C29A10F5424BEB19DA9304CD8404221F97
:10D0A000812B3600CD6607C2C01003572A0A815E65
:10D0B000EB2909EB2B2B73237223F1DA0111474F74
:10D0C0007E2316E15E235623E3F5CD6607D27A1060
:10D0D000E5CD3C18D119F13D444DC2E2102929C1DA
:10D0E00009EB2A1581C92A1F81EB210000393AF288
:10D0F00080B7CA2111CD8813CD88122A9F80EB2AD0
:10D1000008817D934F7C9A41501E0021F280730666
:10D1100090C367173AF08047AFC32711CDBE11CD3A
:10D12000B01101950AC5D5CD6C0728CD620FE5EB8E
:10D130002B562B5EE1CD6E0DCD6C0729CD6C07B45F
:10D14000444DE3712370C3FD11CDBE11D5CD430E07
:10D15000CD6E0DE35E2356237AB3CAAA047E2366FE
:10D160006FE52A2381E32223812A2781E52A25816D
:10D17000E5212581D5CDA817E1CD6B0D2BCDFA0882
:10D18000C29E04E1222581E1222781E1222381E15F
:10D19000C9E52AA180237CB5E1C01E16C3B204CD27
:10D1A0006C07A73E80321081B647CD670FC36E0D66
:10D1B000CD6E0DCDF518CD0312CD881301E313C547
:10D1C0007E2323E5CD5E12E14E2346CDF711E56FB8
:10D1D000CD7B13D1C9CD5E12210481E57723237362
:10D1E0002372E1C92B062250E50EFF237E0CB7CA3D
:10D1F0001912BACA1912B8C20A12FE22CCFA08E3EE
:10D2000023EB79CDF7111104812AF6802229813E82
:10D210000132F280CDAB17CD660722F680E17EC0E9
:10D220001E1EC3B20423CD0312CD8813CD9F171C3D
:10D230001DC80ACD7707FE0DCCB00B03C34F12B744
:10D240000EF1F52A9F80EB2A08812F4F06FF092354
:10D25000CD6607DA7C1222088123EBF1C9F11E1A90
:10D26000CAB204BFF5016012C52AF48022088121E8
:10D270000000E52A9F80E521F880EB2AF680EBCDBF
:10D280006607019912C2ED122A1B81EB2A1D81EB60
:10D29000CD6607CAC0127E2323B7CDF012C3AA12EF
:10D2A000C1EB2A1F81EBCD6607CA1613CD9F177BF2
:10D2B000E509B7F2BF12220A81E14E0600090923EF
:10D2C000EB2A0A81EBCD6607CAC01201DF12C5F650
:10D2D000807E23235E235623F0B7C8444D2A08815D
:10D2E000CD66076069D8E1E3CD6607E3E56069D004
:10D2F000C1F1F1E5D5C5C9D1E17DB4C82B462B4EAE
:10D30000E52B2B6E26000950592B444D2A0881CD60
:10D310006D04E171237069602BC38B12C5E52A2966
:10D3200081E3CDF40DE3CD6F0D7EE52A2981E586FD
:10D330001E1CDAB204CDF411D1CD8C13E3CD8B13C6
:10D34000E52A0681EBCD7213CD721321890DE3E539
:10D35000C32512E1E37E23234E23466F2C2DC80AFA
:10D36000120313C37C13CD6F0D2A2981EBCDA613B5
:10D37000EBC0D550591B4E2A0881CD6607C2A413B5
:10D380004709220881E1C92AF6802B462B4E2B2B18
:10D39000CD6607C022F680C9013611C5CD8513AF11
:10D3A0005732F2807EB7C9013611C5CDBB13CAC54D
:10D3B0000923235E23561AC93E01CDF411CDD214A0
:10D3C0002A068173C1C32512CD8214AFE34FE57ED7
:10D3D000B8DAF51378110E00C5CD5E12C1E1E52370
:10D3E0002346236668060009444DCDF7116FCD7BB7
:10D3F00013D1CD8C13C32512CD8214D1D51A90C36D
:10D40000EB13EB7ECD87140405CAC509C51EFFFECC
:10D4100029CA3A14CD6C072CCDCF14CD6C0729F155
:10D42000E301ED13C53DBE0600D04F7E91BB47D84A
:10D4300043C9CDBB13CA70155F23237E23666FE5F6
:10D44000194672E3C57EFE24C27014CDA31CC37EB0
:10D4500014FE25C27B14CD1F1DC37E14CD5718C1E9
:10D46000E170C9EBCD6C0729C1D1C543C9CDD21438
:10D47000328480CD8380C33611CDBC14C34B80CDA4
:10D48000BC14F51E002BCDFA08CAB214CD6C072CC3
:10D49000CDCF14C1CD8380ABA0CAB314C9CDCF14F6
:10D4A000328480324C80CD6C072CC3CF14CDFA0867
:10D4B000CD6B0DCDAA097AB7C2C5092BCDFA087B71
:10D4C000C9CDB0091AC33611CD6B0DCDB009D5CD7C
:10D4D0006C072CCDCF14D112C921CE19CD9F17C303
:10D4E0000A15CD9F1721C1D1CD791778B7C83A2C2D
:10D4F00081B7CA911790D224152F3CEBCD8117EB41
:10D50000CD9117C1D1FE19D0F5CDB61767F1CDCFAA
:10D5100015B4212981F24A15CDAF15D290152334C7
:10D52000CAAD042E01CDE515C39015AF90477E9B83
:10D530005F237E9A57237E994FDCBB156863AF4704
:10D5400079B7C27D154A54656F78D608FEE0C25E91
:10D5500015AF322C81C905297A1757798F4FF2758B
:10D5600015785C45B7CA9015212C818677D2701545
:10D57000C878212C81B7FCA21546237EE680A94FEE
:10D58000C391171CC014C00CC00E8034C0C3AD04BE
:10D590007E835F237E8A57237E894FC9212D817E1A
:10D5A0002F77AF6F90477D9B5F7D9A577D994FC9CD
:10D5B0000600D608DADE15435A510E00C3D115C64F
:10D5C000096FAF2DC8791F4F7A1F577B1F5F781FD8
:10D5D00047C3E1150000008103AA561980F12276A5
:10D5E0008045AA3882CD5017B7EAC509212C817E23
:10D5F00001358011F30490F570D5C5CD0A15C1D160
:10D6000004CDA61621F315CD011521F715CD981AD5
:10D61000018080110000CD0A15F1CDCB18013180B9
:10D6200011187221C1D1CD5017C82E00CD0E177917
:10D63000323B81EB223C810100005058215B15E513
:10D64000216716E5E52129817E23B7CA9316E52EC9
:10D65000081F6779D28116E52A3C8119EBE13A3B34
:10D6600081891F4F7A1F577B1F5F781F472D7CC210
:10D670007016E1C9435A514FC9CD81170120841159
:10D680000000CD9117C1D1CD5017CAA1042EFFCDF6
:10D690000E1734342B7E3257802B7E3253802B7EF4
:10D6A000324F8041EBAF4F575F325A80E5C57DCD99
:10D6B0004E80DE003FD2DE16325A80F1F137D2C101
:10D6C000E1793C3D1FFA9115177B175F7A1757795F
:10D6D000174F297817473A5A8017325A8079B2B3D0
:10D6E000C2CB16E5212C8135E1C2CB16C3AD04783F
:10D6F000B7CA32177D212C81AE80471FA878F2313E
:10D7000017C68077CA9116CDB617772BC9CD50179B
:10D710002FE1B7E1F27015C3AD04CD9C1778B7C8FF
:10D72000C602DAAD0447CD0A15212C8134C0C3AD41
:10D73000043A2C81B7C83A2B81FE2F179FC03CC9F1
:10D74000CD50170688110000212C814F7006002350
:10D75000368017C35815CD5017F0212B817EEE80EF
:10D7600077C9EB2A2981E3E52A2B81E3E5EBC9CDD3
:10D770009F17EB2229816069222B81EBC921298126
:10D780005E2356234E234623C911298106041A77A6
:10D79000132305C2AD17C9212B817E07371F773FA1
:10D7A0001F2323777907371F4F1FAEC978B7CA5099
:10D7B00017215917E5CD501779C8212B81AE79F87B
:10D7C000CDE5171FA9C92378BEC02B79BEC02B7A1F
:10D7D000BEC02B7B96C0E1E1C9474F575FB7C8E594
:10D7E000CD9C17CDB617AE67FC1C183E9890CDCFD8
:10D7F000157C17DCA2150600DCBB15E1C91B7AA35A
:10D800003CC00BC9212C817EFE983A2981D07ECD67
:10D81000F81736987BF57917CD5815F1C921000016
:10D8200078B1C83E1029DA7A10EB29EBD2521809E8
:10D83000DA7A103DC24418C9FE2DF5CA6318FE2BD2
:10D84000CA63182BCD701547575F2F4FCDFA08DAF2
:10D85000B418FE2ECA8F18FE45C29318CDFA08CD13
:10D86000A50ECDFA08DAD61814C29318AF935F0C40
:10D870000CCA6B18E57B90F4AC18F2A218F5CD98A1
:10D8800016F13CC29618D1F1CC7917EBC9C8F5CD89
:10D890003917F13DC9D557788947C5E5D5CD391731
:10D8A000F1D630CDCB18E1C1D1C36B18CD8117CDE6
:10D8B0006217C1D1C30A157B0707830786D6305F7D
:10D8C000C38118E5213604CD4512E1EBAF0698CDB2
:10D8D0006717214412E5212E81E5CD50173620F23D
:10D8E0000319362D233630CAB919E5FC7917AFF57F
:10D8F000CDBF1901439111F84FCDCB17B7E23019C5
:10D90000F1CDAD18F5C31219CD9816F13CF5CDBF88
:10D9100019CDF8143CCDF817CD9117010603F1810C
:10D920003CFA4C19FE08D24C193C473E023D3DE101
:10D93000F511D21905C25D19362E2336302305366E
:10D940002ECCA617C5E5D5CD9C17E1062F047B96F6
:10D950005F237A9E5723799E4F2B2BD26C19CDAF24
:10D960001523CD9117EBE17023C10DC25D1905CAD6
:10D970009D192B7EFE30CA9119FE2EC4A617F1CA3E
:10D98000BC19364523362BF2AD19362D2F3C062F08
:10D9900004D60AD2AF19C63A237023772371E1C99E
:10D9A00001749411F723CDCB17B7E1E22719E900F1
:10D9B000000080A08601102700E803006400000A30
:10D9C0000000010000217917E3E9CD811721CE196C
:10D9D000CD8E17C1D1CD501778CA371AF2021AB7B7
:10D9E000CAA104B7CA7115D5C579F67FCD9C17F2C7
:10D9F0001F1AD5C5CD2318C1D1F5CDCB17E17C1F9A
:10DA0000E1222B81E1222981DCE419CC7917D5C5EB
:10DA1000CD0416C1D1CD4516CD8117013881113BFA
:10DA2000AACD45163A2C81FE88D22C17CD2318C6D4
:10DA300080C602DA2C17F521F315CDFB14CD3C1668
:10DA4000F1C1D1F5CD0715CD791721771ACDA71AD8
:10DA5000110000C14AC3451608402E9474704F2E21
:10DA6000776E02887AE6A02A7C50AAAA7EFFFF7F02
:10DA70007F0000808100000081CD8117114316D501
:10DA8000E5CD9C17CD4516E1CD81177E23CD8E17B0
:10DA900006F1C1D13DC8D5C5F5E5CD4516E1CD9F0F
:10DAA00017E5CD0A15E1C3B01ACD5017215E80FAF3
:10DAB000291B217F80CD8E17215E80C886E6070650
:10DAC00000772387874F09CD9F17CD45163A5D8094
:10DAD0003CE6030600FE0188325D80212D1B87870E
:10DAE0004F09CDFB14CD9C177B59EE4F4F36802B41
:10DAF000463680215C80347ED6ABC2201B770C1565
:10DB00001CCD5B15217F80C3A817772B772B77C39C
:10DB1000041B68B1466899E9926910D1756821873C
:10DB20001BCDFB14CD811701498311DB0FCD91175C
:10DB3000C1D1CDA616CD8117CD2318C1D1CD0715E2
:10DB4000218B1BCD0115CD501737F2731BCDF81467
:10DB5000CD5017B7F5F47917218B1BCDFB14F1D4F9
:10DB60007917218F1BC3981ADB0F49810000007FB2
:10DB700005BAD71E866426998758342387E05DA5A9
:10DB800086DA0F4983CD8117CD431BC1E1CD8117C3
:10DB9000EBCD9117CD3D1BC3A416CD5017FCE41956
:10DBA000FC79173A2C81FE81DAD61B01008151598C
:10DBB000CDA616210115E521E01BCD981A21871B62
:10DBC000C9094AD73B78026E847BFEC12F7C743131
:10DBD0009A7D843D5A7DC87F917EE4BB4C7E6CAAC1
:10DBE000AA7F00000081C9D7C93E0CC3531DCDCF09
:10DBF000147B328780C9CD6B0DCDB009E5D5E1220C
:10DC00008B80228D80E1C9CDB009D5E146237EC34A
:10DC10002711CD6B0DCDB009D5CD6C072CCD6B0D7B
:10DC2000CDB009E3732372E1C9CD6E0DCDB009C546
:10DC3000212E817AFE00CA651CCD841C78FE30CA74
:10DC4000631C702371237BCD841C7AFE00C2751C7B
:10DC500078FE30CA771C70237123AF772377C121F8
:10DC60002E81C3D51147E60FFE0ADA8E1CC607C601
:10DC7000304F780F0F0F0FE60FFE0ADA9F1CC60712
:10DC8000C63047C9EB210000CDBF1CDAE01CC3B68B
:10DC90001CCDBF1CDAD71C29292929B56FC3B01C9C
:10DCA000131AFE20CABF1CD630D8FE0ADAD31CD6FF
:10DCB00007FE0AD8FE103FC9EB7A4BE5CD2611E1ED
:10DCC000C91E26C3B204CD6E0DCDB009C5212E816B
:10DCD00006110578FE01CA041D7B175F7A1757D21B
:10DCE000F11CC30A1D7B175F7A17573E30CE0077B1
:10DCF0002305C2041DAF772377C1212E81C3D5111F
:10DD0000EB210000CD3D1DDA4B1DD63029B56FCD7E
:10DD10003D1DD2291DEB7A4BE5CD2611E1C9131A21
:10DD2000FE20CA3D1DFE30D8FE323FC91E28C3B2B8
:10DD300004C3F100C30800C300003E00329280C358
:10DD4000F800F5A0C1B83E00C9CD7707C3A60B0007
:10DD500000000000000000000000000000000000C3
:10DD600000000000000000000000000000000000B3
:10DD700000000000000000000000000000000000A3
:10DD80000000000000000000000000000000000093
:10DFE00000F3310090CDB92721008022908F229735
:10DFF0008F22958FAF329B8F219C8F0E0CAF772392
:10E000000DC21D2021009022A38F21008022A58F08
:10E01000215126CDE6243E7F3CEA6620F5C179E613
:10E0200008C2562021FFFF23F5C179E620C25E20F9
:10E03000219926AFC36B2021A1263E01C36B20216D
:10E04000AC263E02C36B2021B4263E10329B8FCDFE
:10E05000E624216C26CDE624CD412521808FCD9765
:10E0600025CD9F25B7CA7120FE44CABD20FE47CAF0
:10E07000E521FE53CA1B22FE4CCA8822FE50CA0B61
:10E0800023FE49CAB423FE4FCADE23FE52CA192416
:10E09000FE42CAB900216F26CDE624C3712023CDEC
:10E0A0009725CDA82579B7C2DE20CD97257EB7C2AA
:10E0B000B4202A908F0180000922928FC31421EB93
:10E0C00022908FEBCD97257EFE2CCAFA20B7C2B4E2
:10E0D000202180001922928FC3142123CD9725CDB2
:10E0E000A825CD972579B7CAB4207EB7C2B420132E
:10E0F000EB22928FEB2A908F3EF0A56FAF32948F78
:10E10000E5CD4821E101100009CDC427C23F213AE5
:10E11000948FFE02DA1F212A928F22908FC37120E2
:10E12000CDBA2722908FC37120CDF024E521772628
:10E13000CDE62421808F22A88FE10610CD8B21050A
:10E14000C25B21217A26CDE62421808F06107E2312
:10E15000FE20DA7F21FE7FD27F21CDC927C3842113
:10E160003E2ECDC92705C26D21C337253E20CDC91E
:10E17000273A948FB7C2BE213A908FBDC2A5213AEB
:10E18000918FBCCAB9213E20CDC927CDC927E52A28
:10E19000A88F772322A88FE123C93E0132948F3ABA
:10E1A000948FFE01C2A5217EE52AA88F772322A89D
:10E1B0008FE1CDF524233A928FBDC03A938FBCC036
:10E1C0003E0232948FC923CD9725CDA8257EB7C2B4
:10E1D000B42079B7CAFB21626B22A58F2AA38FF9DD
:10E1E0002AA58FE53AA78F4F3A9C8F47C5219D8F6F
:10E1F0004E2346235E23562AA18FF1C923CD9725AE
:10E20000CDA825CD97257EB7C2B420EB79B7C23310
:10E21000222A978FCDF024E5217A26CDE624E17ECF
:10E22000E5CDF5243E20CDC927CD412521808FCDD8
:10E2300097257EB7C25E22E12322978FC33322FE49
:10E240002DC26B22E12B22978FC33322FE2EC27781
:10E2500022E122978FC37120CDA82579B7E1CAB4F6
:10E2600020732322978FC3332223CD9725CDA82552
:10E27000CD97257EB7C2B42079B7C29F2211000086
:10E28000CDBA27CD9F25FE3ACABA22FE0DCA9F22DB
:10E29000FE0ACA9F22CDBA27C3AA22CD0C254F471A
:10E2A000CD0C2567814FCD0C256F814F19CD0C25E5
:10E2B000329A8F814F78B7CAF122CD0C25F5814F64
:10E2C0003A9A8FB7C2EC22F17723C3ED22F105C24F
:10E2D000D922CD0C2581C202233A9A8FB7CAB42223
:10E2E000C37120217E26CDE624C3712023CD97253E
:10E2F000CDA82579B7CA3923EB22A88FEBCD972576
:10E300007EFE2CC2392323CD9725CDA82579B7CA07
:10E310003923CD97257EB7CA3C23C3B4202AA88FC2
:10E32000137B9532AA8F7A9C32AB8FCD61233AAAA8
:10E330008F473AAB8FB0C24A23218B26CDE624C348
:10E34000712006103AAB8FB7C272233AAA8FB8D2A7
:10E350007223473AAA8F9032AA8F3AAB8FDE0032EF
:10E36000AB8F3E3ACDC92778CDF524784F7CCDF5DB
:10E37000247C814F7DCDF5247D814FAFCDF5247E6A
:10E38000F5CDF524F1814F2305C29E23792F3CCD95
:10E39000F524C3372523CD9725CDA82579B7CAB451
:10E3A00020CD97257EB7C2B42021808F36DB237322
:10E3B0002336C9CD808FCDF524CD3725C3712023D9
:10E3C000CD9725CDA82579B7CAB42043CD97257E12
:10E3D000FE2CC2B42023CD9725CDA82579B7CAB489
:10E3E00020CD97257EB7C2B42021808F36D32370ED
:10E3F0002336C97BCD808FC3712023CD9725CD9F38
:10E4000025B7C22A24CDB324C37120EB210A27BE2D
:10E41000CA41244F237EB7CAB0247901050009C33D
:10E420002E24237EFE0FC25524234E236669131A21
:10E43000CD9F25C32E24B7CAB0244E235E2356D5C4
:10E44000237E23666FCDE6243E3DCDC92779E607BE
:10E45000FE01C27D24E17EE5CDF524C38624E1E5FD
:10E460005E2356EBCDF0243E20CDC927C5CD4125F6
:10E4700021808FCD9725CDA82579B7CAAD24C17944
:10E48000FE01C2A924E173C3AD24E1732372C371F9
:10E4900020C3B42021C2265E2356237AB3CA37256F
:10E4A000EBCDE624EB5E2356237E23EBFE01C2D8A0
:10E4B000247ECDF524EBC3B624237ECDF5242B7E1C
:10E4C000CDF524EBC3B6247EA7C8CDC92723C3E668
:10E4D000247CCDF5247DF51F1F1F1FCDFE24F1E602
:10E4E0000FC630FE3ADAC927C607C3C927AFCD1415
:10E4F0002507070707C54FCDBA27CD9F25FE30DA80
:10E500003525FE3ADA3225FE41DA3525FE47D23589
:10E5100025D607D630B1C1C93E0DCDC9273E0AC3A5
:10E52000C92721808F0600CDBA27FE0DCA9125FE8E
:10E530000ACA9125FE08CA7825FE7FCA7825FE20E2
:10E54000DA4625FE80D246254F78FE0FD2462504B6
:10E5500079CDC9277723C3462578A7CA4625052B39
:10E560003E08CDC9273E20CDC9273E08CDC927C3C7
:10E570004625CD37253600C97EFE20C023C397250A
:10E58000FE61D8FE7BD0C6E0C90E001100007ECD32
:10E590009F25FE30DAF425FE3ADAC725FE41DAF48B
:10E5A00025FE47D2F425D607D6301717171717F5CB
:10E5B0007B175F7A1757F117F57B175F7A1757F1BB
:10E5C00017F57B175F7A1757F1177B175F7A175785
:10E5D000230CC3AD25C9E5C521052606000909465A
:10E5E000236668C1E3C913261826C927E624BA277B
:10E5F000C4271C26E1F3F20020E1F271203A9B8F40
:10E60000C9F522A18F219D8F71237023732372C1BD
:10E6100078329C8F7932A78FE12B22A58F210000C1
:10E620003922A38F21BA26CDE624CDB324C371208D
:10E63000FBC90D0A556E6976657273616C204D6F6A
:10E640006E69746F7220383038300D0A005D20001A
:10E650004572726F720D0A00203A00203A20004580
:10E6600072726F7220696865780D0A003A30303036
:10E67000303030303146460D0A0069383038300DC0
:10E680000A0075504438303830410D0A006938307E
:10E6900038350D0A005A38300D0A005253542035CF
:10E6A0000D0A00EA269C8F01ED269D8F02F2269F1F
:10E6B0008F02F726A18F02FC26A38F020127A58FC8
:10E6C000020627A78F010000000000413D00204204
:10E6D000433D002044453D0020484C3D0020535020
:10E6E0003D002050433D0020463D0041019C8F9A53
:10E6F00027420F4C27000043019D8FA127440F5E46
:10E7000027000045019F8FA8274601A78FAA274809
:10E710000F702700004C01A18FB127500F822700F6
:10E7200000530F8E27000000000000000000019E33
:10E730008F9F2743029D8F9C270000000000000050
:10E7400001A08FA62745029F8FA32700000000008D
:10E75000000001A28FAF274C02A18FB1270000005B
:10E760000000004302A58FB3270000000000005006
:10E7700002A38FB6270000000000004100424300C2
:10E7800042004300444500440045004600484C0018
:10E7900048004C00504300535000C9DB01E602CA58
:10E7A000BA27DB00C9DB01E602C9F5DB01E601CAD5
:10E7B000CA27F1D300C900000000000000000000DB
:10E7C0000000000000000000000000000000000049
:10E7D0000000000000000000000000000000000039
:10E7E0000000000000000000000000000000000029
:10E7F0000000000000000000000000000000000019
:10FFE000000D0A4D455A383038302025322E336600
:0FFFF0004D487A0D0A00696E66006E616E000062
:020000040001F9
:10000000000E816F57C584F558C585F559C586F52D
:100010005AC587F587AF14D0010E816F84C501F5ED
:1000200085C502F586C503F587C504F509EC90F092
:1000300001C584F502C585F503C586F504C587F5B8
:10004000000E836F000E826FB8C571F5B9C572F5E9
:100050008151D8B40DD08151D8A404D0000E676F5F
:100060002B0E03D0000E676F2D0E666F66C581F5EF
:1000700084C501F585C502F586C503F587C504F578
:1000800026EC8DF001040210D8A42CD0050181517A
:10009000D8B409D081C500F67107D8A07207000E48
:1000A000836F010E826F000E8225016E060E832182
:1000B000026EF60E036EFF0E046ED0EC8FF0FD0E96
:1000C0007127FF0E722355C512F556C513F5000EA4
:1000D000146E060E156E71C516F572C517F5DAECBD
:1000E0008EF0120084C501F585C502F586C503F5BD
:1000F00087C504F526EC8DF001500210D8A42CD051
:1001000005018151D8B409D081C500F67107D8A086
:100110007207000E836F010E826F000E8225016E42
:10012000060E8321026EFA0E036EFF0E046ED0ECF3
:100130008FF0FD0E7127FF0E722355C512F556C5BF
:1001400013F5000E146E060E156E71C516F572C508
:1001500017F5DAEC8EF01200000E0501886F000E24
:10016000896F800E8A6F3F0E8B6F000E706F000ECE
:100170006F6F84C501F585C502F586C503F587C592
:1001800004F5000E056E000E066E000E076E000EE2
:10019000086E95EC8EF0D8A00CD0BED073C588F553
:1001A00074C589F575C58AF576C58BF505016F4B64
:1001B000702B88C50FF589C510F58AC511F58BC55B
:1001C00012F5000E136E000E146E200E156E410E09
:1001D000166E55EC84F00FC573F510C574F511C596
:1001E00075F512C576F505017351845D016E745184
:1001F0008559026E75518659036E76518759046E82
:100200001AEC8FF004BECAD704500310021004E1A8
:10021000020E015CD8A0C2D773C528F574C529F5B4
:1002200075C52AF576C52BF584C52CF585C52DF544
:1002300086C52EF587C52FF5BEEC8CF0D8A0AED7BD
:1002400005018851845D016E89518559026E8A517C
:100250008659036E8B518759046E1AEC8FF004BED9
:1002600008D004500310021043E1020E015CD8B024
:100270003FD088C584F589C585F58AC586F58BC5C7
:1002800087F54AD088C528F589C529F58AC52AF594
:100290008BC52BF5000E2C6E000E2D6E200E2E6ED3
:1002A000410E2F6EF8EC88F028C588F529C589F530
:1002B0002AC58AF52BC58BF505016F07D8A07007F5
:1002C0008851845D016E89518559026E8A51865923
:1002D000036E8B518759046E1AEC8FF004BEC9D798
:1002E00004500310021004E1020E015CD8A0C1D733
:1002F00084C528F585C529F586C52AF587C52BF55A
:1003000088C52CF589C52DF58AC52EF58BC52FF529
:10031000BEEC8CF0D8A0B6D75BC569F569C56AF5A7
:100320000501BBBF05D0BAC562F5BBC563F504D0F6
:10033000000E636F060E626F62C56DF563C56EF5E4
:100340006D4B6E2B660E6A19D8A416D070AF0CD008
:10035000000E886F000E896F800E8A6F3F0E8B6FC4
:10036000000E706F000E6F6F670E6919D8B404D05D
:100370006F516D2770516E23000E786F000E776FEE
:1003800084C579F585C57AF586C57BF587C57CF585
:1003900088C573F589C574F58AC575F58BC576F57D
:1003A0007BD079C528F57AC529F57BC52AF57CC5AA
:1003B0002BF588C52CF589C52DF58AC52EF58BC57D
:1003C0002FF5F8EC88F028C541F529C542F52AC576
:1003D00043F52BC544F54AEC8BF041C57DF542C58C
:1003E0007EF543C57FF544C580F57DC501F57EC525
:1003F00002F57FC503F580C504F58CEC8DF001C5D1
:100400006BF502C56CF579C528F57AC529F57BC56C
:100410002AF57CC52BF57DC513F57EC514F57FC582
:1004200015F580C516F588C50FF589C510F58AC57F
:1004300011F58BC512F555EC84F00FC52CF510C5E0
:100440002DF511C52EF512C52FF56BEC8FF028C5D3
:1004500079F529C57AF52AC57BF52BC57CF588C5C4
:1004600028F589C529F58AC52AF58BC52BF5000E17
:100470002C6E000E2D6E200E2E6E410E2F6EF8EC9F
:1004800088F028C588F529C589F52AC58AF52BC5C0
:100490008BF50501774B782B6D51775D7851800A8C
:1004A0005C6E6E51800A5C58D8A07BD788C50FF56A
:1004B00089C510F58AC511F58BC512F5000E136EAE
:1004C000000E146EA00E156E400E166E55EC84F0E4
:1004D0000FC57DF510C57EF511C57FF512C580F5F8
:1004E00079C528F57AC529F57BC52AF57CC52BF594
:1004F0007DC52CF57EC52DF57FC52EF580C52FF564
:10050000BEEC8CF0D8B003D0000E050118D079C530
:1005100001F57AC502F57BC503F57CC504F57DC5FB
:1005200005F57EC506F57FC507F580C508F595EC90
:100530008EF0D8A00BD005016BB108D0000E7D6FF6
:10054000000E7E6F000E7F6F000E806F84C501F578
:1005500085C502F586C503F587C504F57DC505F596
:100560007EC506F57FC507F580C508F572EC87F0F6
:1005700001C579F502C57AF503C57BF504C57CF59F
:1005800079C528F57AC529F57BC52AF57CC52BF5F3
:10059000000E136E000E146E200E156E410E166EB8
:1005A00073C50FF574C510F575C511F576C512F54F
:1005B00055EC84F00FC52CF510C52DF511C52EF5A1
:1005C00012C52FF5BEEC8CF0D8A024D005016F4BDE
:1005D000702B73C50FF574C510F575C511F576C58B
:1005E00012F5000E136E000E146E200E156E410EE5
:1005F000166E55EC84F00FC573F510C574F511C572
:1006000075F512C576F5660E05016A19D8A402D0F3
:100610006D4B6E2B73C588F574C589F575C58AF564
:1006200076C58BF56FC560F570C561F5000E0501E7
:10063000686F000E656F000E646F000E786F000E1D
:10064000776FCDD079C528F57AC529F57BC52AF510
:100650007CC52BF588C52CF589C52DF58AC52EF5E9
:100660008BC52FF5F8EC88F028C541F529C542F572
:100670002AC543F52BC544F54AEC8BF041C57DF501
:1006800042C57EF543C57FF544C580F57DC501F5BE
:100690007EC502F57FC503F580C504F58CEC8DF0B1
:1006A00002BE06D0025013E10A0E015CD8B00FD092
:1006B0007DC501F57EC502F57FC503F580C504F54E
:1006C0008CEC8DF001C56BF502C56CF505D0000E04
:1006D00005016C6F090E6B6F05016851D8B461AFED
:1006E00020D0000E8225D96E060E8321DA6E2E0EE2
:1006F000DF6E824B832B7107D8A07207010E686FE3
:1007000010D0000E8225D96E060E8321DA6E300ECF
:10071000DF6E824B832B7107D8A072076407D8A0C5
:10072000650764516511D8A4ECD7000E8225D96EF7
:10073000060E8321DA6E6B51300FDF6E824B832BF6
:100740007107D8A0720779C528F57AC529F57BC548
:100750002AF57CC52BF57DC513F57EC514F57FC53F
:1007600015F580C516F588C50FF589C510F58AC53C
:1007700011F58BC512F555EC84F00FC52CF510C59D
:100780002DF511C52EF512C52FF56BEC8FF028C590
:1007900079F529C57AF52AC57BF52BC57CF588C581
:1007A00028F589C529F58AC52AF58BC52BF5000ED4
:1007B0002C6E000E2D6E200E2E6E410E2F6EF8EC5C
:1007C00088F028C588F529C589F52AC58AF52BC57D
:1007D0008BF505016007D8A06107774B782B6D5129
:1007E000775D7851800A5C6E6E51800A5C58D8B093
:1007F00008D083BF27D7835104E14B0E825DD8A078
:1008000021D7000E786F4F0E776F000E7725D96EC7
:10081000060E7821DA6EDF6A000E5C6E060E5D6EE3
:1008200082515C5E83515D5A77515C24016E785130
:100830005D20026E000E036E060E046E82C505F585
:1008400083C506F58EEC8FF08251775D826F835100
:100850007859836F8151D8B402D0010E01D0000EB7
:10086000776F786B8151D8B40BD08207D8A08307FB
:10087000000E8225D96E060E8321DA6E81C5DFF463
:100880007751715F7851725B55C512F556C513F5F6
:10089000000E8225146E060E8321156E71C516F5A5
:1008A00072C517F5DAEC8EF012001250800B1B6E39
:1008B00012501224216E11BE21802150D8B40DD0C7
:1008C0002128D8A408D0000E0F6E000E106E000E66
:1008D000116E000E126E118E08D0000E0F6E000EFB
:1008E000106E000E116E000E126E1650800B1B1A49
:1008F000165016241C6E15BE1C801C50D8B40DD08A
:100900001C28D8A408D0000E136E000E146E000E22
:10091000156E000E166E158E08D0000E136E000EAA
:10092000146E000E156E000E166E1C50D8B403D057
:100930002150D8A409D0000E0F6E000E106E000ECC
:10094000116E000E126E120015500F02F3C426F540
:10095000F4C427F526501D6E1E6A1F6A206A2750B0
:10096000226E236A246A256A14501002F3C426F505
:10097000F4C427F526501D26000E1E221F22202219
:1009800027502226000E2322242225221350110252
:10099000F3C426F5F4C427F526501D26000E1E22AA
:1009A0001F22202227502226000E23222422252225
:1009B0001FC520F51EC51FF51DC51EF51D6A135068
:1009C0001002F3C426F5F4C427F526501D2627503F
:1009D0001E22000E1F22000E202214500F02F3C40C
:1009E00026F5F4C427F526501D2627501E22000E9A
:1009F0001F22000E20221FC520F51EC51FF51DC594
:100A00001EF51D6A13500F02F3C426F5F4C427F532
:100A100026501D2627501E22000E1F22000E2022C7
:100A200015501002F3C426F5F4C427F526502226EB
:100A300027502322000E2422000E252214501102DA
:100A4000F3C426F5F4C427F5265022262750232286
:100A5000000E2422000E252215501102F3C426F5A3
:100A6000F4C427F52650176E2750186E196A1A6AB3
:100A700019C51AF518C519F517C518F5176A1750CD
:100A8000222618502322195024221A5025222050A1
:100A90002226000E2322242225221FC520F51EC552
:100AA0001FF51DC51EF51D6A1C5021C517F5186AD6
:100AB0001726000E1822820E1724266EFF0E18200D
:100AC000276E0FD0D890223623362436253620BE06
:100AD0002280D8901D361E361F3620362606D8A016
:100AE000270624AEEFD7000E1C6E20AE17D0FF0EE7
:100AF0001D14176EFF0E1E14186EFF0E1F14196EB4
:100B00007F0E20141A6E1750181019101A10D8B42E
:100B100003D0010E1C6E02D022B0FBD71C50D8B4FB
:100B20001FD0010E2226000E23222422252225A0DA
:100B300017D022C517F523C518F524C519F525C505
:100B40001AF51A341A3219321832173217C522F52B
:100B500018C523F519C524F51AC525F5264A272AEF
:100B600027BE0DD0275003E12628D8A008D0000EBC
:100B7000226E000E236E800E246E7F0E20D027BEC4
:100B800005D027500EE12604D8B00BD0000E226EFF
:100B9000000E236E000E246E000E256E000E1B6EDE
:100BA0000FD026C521F5FF0E2216FF0E23167F0E4D
:100BB0002416000E251621B0248ED8902130256EE3
:100BC0001B50251222C50FF523C510F524C511F5BC
:100BD00025C512F51200080E0001B16F000E0401C8
:100BE000186F1969C968000E086F0969C768000E97
:100BF000106F1169C8682095C284CA943F0E020123
:100C0000066F0401009BC69A000E436F400E446FAE
:100C1000000E456F000E476F4691468B468F009938
:100C2000BE88C69800910181C68000970187C6865C
:100C300000930183C6820095BE84C6942091C29021
:100C4000CA90010E0201D56FA00ED46FD189D18B4D
:100C50000401009FC68E070E0201766F0401009DFD
:100C6000BE8CC69C260E0201076FD28F000E136E3B
:100C7000240E146EF40E156E410E166E04014351CF
:100C8000016E4451026E4551036E046A000E1EEC63
:100C90008CF001C50FF502C510F503C511F504C5AB
:100CA00012F555EC84F00FC528F510C529F511C5CE
:100CB0002AF512C52BF5000E2C6E240E2D6E740E27
:100CC0002E6E490E2F6EF8EC88F028C5A9F529C5BF
:100CD000AAF52AC5ABF52BC5ACF5E10E0501A16F50
:100CE000FF0EA26FA9C5A3F5AAC5A4F5ABC5A5F5CE
:100CF000ACC5A6F520EC90F01F0E0201636F1E0E2E
:100D0000646F1D0E676F1C0E686F000E0001D56FBB
:100D1000020ED86F030ED96F060EDA6F7F0EDB6FEF
:100D2000020EDC6F040EDD6F100EDE6F400EDF6F03
:100D3000000ED76F820ED66F010ED56F020ED86FE0
:100D4000030ED96F7F0EDA6F7F0EDB6F010EDC6F43
:100D5000040EDD6F100EDE6F400EDF6F000ED76FDA
:100D6000820ED66F550E0401596FAA0E596F599114
:100D7000080E5D6F000E5E6F000E5F6F550E596FAF
:100D8000AA0E596F5981D68E000E0501AE6F000E66
:100D9000AD6FCEBAFED7BE88BE980501AD4BAE2B67
:100DA000AEBFF7D7AE5104E10A0EAD5DD8A0F1D7C2
:100DB000CEAAFED7CEBAFED7C294BE88BE98CEAA1F
:100DC000FED7CEA06AD0D0C4AFF5D1C4BDF5CFC494
:100DD000BCF5CEBAFED7BE88BE980501AFAF29D00C
:100DE0000001D4A30ED0E10E0501BC25F66EBF0EA6
:100DF000BD21F76EF86A000EF8220800F5C4C0F4B1
:100E00000DD0D4A10AD0500E0501BC25D96E860E96
:100E1000BD21DA6EDF50C06E01D0C068B7B0C280AD
:100E2000CEBAFED7000EC86EBE88BE98CEAAFED738
:100E3000C868420E0501AF19D8A41FD0BC05D8A4BC
:100E400008D0000EB7B0010E020DF350B7B2010F7B
:100E50000AD0BC51D8A406D0C7C2C0F4B7B004D0E1
:100E6000C29002D0000EC06ECEBAFED7000EC86E81
:100E7000BE88BE98CEAAFED7C8680501AFA10AD029
:100E8000C068CEBAFED7000EC86EBE88BE98CEAA85
:100E9000FED7C86800F000F094D7CEB21CD0050190
:100EA000AFA906D0BC51D8A40FD0D0C4C9F20CD081
:100EB0000001D4A109D0500E0501BC25D96E860EC3
:100EC000BD21DA6ED0C4DFF4CEBAFED7BE88BE989C
:100ED000CEBA77D7FDD7CEBAFED7BE88BE98CEBAE7
:100EE00070D7FDD70450800B0D6E045004240F6E94
:100EF00003BE0F800F50D8B40DD00F28D8A408D04F
:100F0000000E016E000E026E000E036E000E046EE7
:100F1000038E06D0000E016E000E026E000E036EF0
:100F2000000E046E0850800B0E6E0D500E18D8A4E3
:100F30000D8C085008240E6E07BE0E800E50D8B4DB
:100F40000DD00E28D8A408D0000E056E000E066E37
:100F5000000E076E000E086E078E06D0000E056E9E
:100F6000000E066E000E076E000E086E0F500E5C2F
:100F7000D8B022D00DAC02D0800E0D1A0FC510F5DE
:100F80000EC50FF510C50EF501C510F505C501F527
:100F900010C505F502C510F506C502F510C506F524
:100FA00003C510F507C503F510C507F504C510F511
:100FB00008C504F510C508F5000E106E0F500EC5DB
:100FC00009F50A6A095E000E0A5A0ABE2CD00A50B8
:100FD00004E11A0E095CD8A026D0015002100310BB
:100FE0000410D8B402D0010E01D0000E106E000E15
:100FF000016E000E026E000E036E000E046E0EC532
:101000000FF515D010A005D0D89010300109106E42
:1010100002D0D890103201B0108E04340432033262
:10102000023201320F2A0E500F5CD8A0EBD70DBC54
:1010300028D00F50D8A409D0000E016E000E026E09
:10104000000E036E000E046E1200055001260650BD
:101050000222075003220850042204A071D010A0DD
:1010600005D0D89010300109106E02D0D8901032FF
:1010700001B0108E043404320332023201320F2ADE
:101080005FD00550015C06500258075003580450C9
:10109000800A096E0850800A0958D8B025D001503E
:1010A000055C096E025006580A6E035007580B6E15
:1010B000045008580C6EFF0E0924016EFF0E0A2022
:1010C000026EFF0E0B20036EFF0E0C20046E800ECE
:1010D0000D1A106C1050D8A40FD0010E0126000E6E
:1010E00002220322042208D00550015E0650025A53
:1010F0000750035A0850045A0150021003100410FC
:10110000D8A41CD01050D8A419D0000E016E000E27
:10111000026E000E036E000E046E1200D8900136AF
:1011200002360336043610BE018010A002D0D880EB
:1011300001D0D89010360F50D8A40F0603AEEED7CA
:10114000000E0E6E10AE0BD010C509F57F0E0916FD
:10115000D8B403D0010E0E6E02D001B0FBD70E50F2
:10116000D8B420D0010E0126000E02220322042250
:1011700004A018D001C509F502C50AF503C50BF591
:1011800004C50CF50C340C320B320A32093209C595
:1011900001F50AC502F50BC503F50CC504F50F28CA
:1011A000D8A40F2A0F28D8B403D00F50D8A40DD03C
:1011B000000E016E000E026E000E036E000E046E35
:1011C0000F50D8A402D0000E0D6E0FA002D0038ED7
:1011D00001D0039ED8900F30046E0DBE048E01C561
:1011E00001F502C502F503C503F504C504F51200B7
:1011F0002B50800B386E2B502B243F6E2ABE3F8025
:101200003F50D8B40DD03F28D8A408D0000E286E87
:10121000000E296E000E2A6E000E2B6E2A8E06D04E
:10122000000E286E000E296E000E2A6E000E2B6E28
:101230002F50800B381A2F502F24406E2EBE408026
:101240004050D8B40DD04028D8A408D0000E2C6E41
:10125000000E2D6E000E2E6E000E2F6E2E8E06D0FE
:10126000000E2C6E000E2D6E000E2E6E000E2F6ED8
:101270002C502D102E102F10D8A417D0000E286E31
:10128000000E296E000E2A6E000E2B6E800E2A12A2
:101290007F0E2B1238502B1228C528F529C529F5A9
:1012A0002AC52AF52BC52BF512003F50D8A409D02A
:1012B000000E286E000E296E000E2A6E000E2B6E98
:1012C000120040503FC530F5316A305E000E315A91
:1012D0007F0E3024396E000E31203A6E28C534F569
:1012E00029C535F52AC536F52BC537F5000E286E0C
:1012F000000E296E000E2A6E000E2B6E000E3B6E45
:10130000000E3C6E000E3D6E000E3E6E000E406EF6
:1013100028D04050D8B411D0D8903436353636362F
:101320003736D890283629362A362B363EBE2880C6
:10133000D8903B363C363D363E362C50345C2D50F2
:1013400035582E5036582F503758D8A009D03E8CDB
:101350002C50345E2D50355A2E50365A2F50375A55
:10136000402A190E4064D5D7345035103610371046
:10137000D8B411D03B800FD0D890283629362A36E1
:101380002B363EBE2880D8903B363C363D363E3626
:101390003906D8A03A062AAEEFD7000E406E3EAE10
:1013A00017D0FF0E3B14306EFF0E3C14316EFF0E53
:1013B0003D14326E7F0E3E14336E305031103210B9
:1013C0003310D8B403D0010E406E02D028B0FBD742
:1013D0004050D8B41FD0010E2826000E29222A2200
:1013E0002B222BA017D028C530F529C531F52AC5E9
:1013F00032F52BC533F533343332323231323032B9
:1014000030C528F531C529F532C52AF533C52BF588
:10141000394A3A2A3ABE10D03A5003E13928D8A0C6
:101420000BD0000E3A6E3968000E286E000E296E41
:10143000000E2A6E000E2B6E3ABE05D03A5011E116
:101440003904D8B00ED0000E3A6E000E396E000E80
:10145000286E000E296E000E2A6E000E2B6E000EF6
:10146000386E39C53FF53FA002D02A8E01D02A9EA2
:10147000D8903F302B6E0ED78EC5D9F48FC5DAF4D5
:10148000DEC4F6F4DDC4F7F4000EF86E0800F55083
:10149000250AD8A4EAD08EC5D9F48FC5DAF4DE2A9D
:1014A000000EDD22000EB96F000EB86FB8C5BEF594
:1014B000BA69BB698EC507F58FC508F590C509F5F2
:1014C00091C50AF5E9EC8DF007C5B8F508C5B9F581
:1014D0000501B9AF05D0BE81B86DB91FD8B0B92B21
:1014E0008EC5D9F48FC5DAF4DEC4F6F4DDC4F7F4A2
:1014F000000EF86E0800F5502E0AD8A415D08EC53F
:10150000D9F48FC5DAF4DE2A000EDD228EC507F588
:101510008FC508F590C509F591C50AF5E9EC8DF080
:1015200007C5BAF508C5BBF58EC5D9F48FC5DAF481
:10153000DEC497F5DDC498F597C5F6F498C5F7F4C1
:10154000000EF86E0800F5C496F508D0974B982B5E
:1015500018D06C0E01D0000E966F13D00501965175
:101560005E6E5F6A5F50000AD8A4F5D75E504C0AE1
:10157000D8B4ECD72A0AD8B4ECD70A0AD8B4E6D73C
:10158000EAD797C5F6F498C5F7F4000EF86E080090
:10159000F550660AD8B41AD060D090C5D9F491C578
:1015A000DAF4DFC45EF5040EDE26DFC45FF5000E5C
:1015B000DD225EC5D9F45FC5DAF4DEC492F5DEC47F
:1015C00093F5DEC494F5DEC495F50ED096515E6EAB
:1015D0005F6A5F50000AD8A407D05E504C0AD8B4A6
:1015E000DCD7200AD8B4D9D7010E97255E6E000E3D
:1015F00098215F6E8EC5D9F48FC5DAF45EC5DEF42E
:101600005FC5DDF418D08CC555F58DC556F592C56E
:1016100057F593C558F594C559F595C55AF597C52D
:10162000F6F498C5F7F4000EF86E0800F5C45BF503
:1016300000EC80F0120097C5F6F498C5F7F4000EA0
:10164000F86E0800F5505E6E5F6A5F50000AD8A41D
:1016500004D05E50660AD8B4D6D78EC5D9F48FC5EB
:10166000DAF4DE2A000EDD2212008EC5D9F48FC511
:10167000DAF4DEC4F6F4DDC4F7F4000EF86E080008
:10168000F550026E036A8CC504F58DC505F545EC71
:101690008EF0E3D7B0C551F5B1C552F5B2C553F5DB
:1016A000B3C554F541C551F542C552F543C553F58F
:1016B00044C554F5810E456EFF0E466E51C547F583
:1016C00052C548F553C549F554C54AF5180E05D01D
:1016D000D8904A32493248324732E82EF9D747503B
:1016E00045244F6E000E4620506E50BE0FD0505015
:1016F00004E1170E4F5CD8A009D041C541F542C5A1
:1017000042F543C543F544C544F5120050BE5BD0D5
:101710004FC545F5FF0E466EFF0E476E7F0E486EB5
:10172000000E496E456601D007D04934493248322F
:1017300047324632452EF6D746C54BF547C54CF5E0
:1017400048C54DF549C54EF54B505114456E4C50AA
:101750005214466E4D505314476E4E505414486EFA
:101760004550461047104810D8B4C7D751C545F565
:1017700052C546F553C547F554C548F5200E05D06A
:10178000D8904832473246324532E82EF9D7455094
:10179000D8B408D04B5051264C5052224D505322B1
:1017A0004E5054224B1C456E4C1C466E4D1C476ED1
:1017B0004E1C486E4550511646505216475053160F
:1017C0004850541632D051C545F552C546F553C55B
:1017D00047F554C548F5200E05D0D8904832473219
:1017E00046324532E82EF9D7456608D0000E516ED4
:1017F000000E526E000E536E000E16D0D89051346B
:10180000456E5234466E5334476E5434486E4550DC
:10181000461047104810D8B408D0000E516E000E84
:10182000526E800E536EBF0E546E51C541F552C5B7
:1018300042F553C543F554C544F51200096E0950ED
:10184000D8A404AE1AD001C505F502C506F503C536
:1018500007F504C508F5051E061E071E081E052A05
:10186000000E06220722082205C50BF506C50CF559
:1018700007C50DF508C50EF508D001C50BF502C565
:101880000CF503C50DF504C50EF50150021003104B
:101890000410D8A409D0000E016E000E026E000ED6
:1018A000036E000E046E1200960E0A6E06D00A2A0F
:1018B000D8900E320D320C320B32000E0B14056E26
:1018C000000E0C14066E000E0D14076EFE0E0E14A4
:1018D000086E0550061007100810D8B40DD0E7D7D1
:1018E0000A2A010E0B26000E0C220D220E22D89081
:1018F0000E320D320C320B32000E0B14056E000E40
:101900000C14066E000E0D14076EFF0E0E14086EFA
:101910000550061007100810D8B407D0E1D70A0602
:10192000D8900B360C360D360E360DBE03D0020E97
:101930000A60F5D70AA00D9ED8900A320AC505F5AF
:10194000066A076A086A05C508F5076A066A056A2D
:1019500005500B1206500C1207500D1208500E12B3
:101960000950D8A404AE01D00E8E0BC501F50CC5EC
:1019700002F50DC503F50EC504F51200000E28147E
:10198000306E000E2914316E800E2A14326E7F0ED6
:101990002B14336E3050311032103310D8A408D0CD
:1019A000000E286E000E296E000E2A6E000E2B6EA1
:1019B000000E2C14306E000E2D14316E800E2E147D
:1019C000326E7F0E2F14336E3050311032103310C0
:1019D000D8A408D0000E2C6E000E2D6E000E2E6EB8
:1019E000000E2F6E2BAE09D0286C291ED8B0292AE4
:1019F0002A1ED8B02A2A800E2B562FAE09D02C6C66
:101A00002D1ED8B02D2A2E1ED8B02E2A800E2F566D
:101A1000000E281A000E291A000E2A1A800E2B1A00
:101A2000000E2C1A000E2D1A000E2E1A800E2F1AE0
:101A30002C50285C2D5029582E502A582F502B58A6
:101A4000D8B002D0D8901200D8801200B4C50BF5DF
:101A5000B5C50CF5B6C50DF5B7C50EF501C50BF549
:101A600002C50CF503C50DF504C50EF50BC505F54E
:101A70000CC506F50DC507F50EC508F5180E05D001
:101A8000D8900832073206320532E82EF9D70550D1
:101A9000096E0A6A09500A10D8A419D0D8900B34DC
:101AA000056E0C34066E0D34076E0E34086E05504C
:101AB000061007100810D8A405D0000E026E020E02
:101AC000016E1200000E026E030E016E1200092854
:101AD0000A10D8A41CD00BC505F50CC506F50DC51C
:101AE00007F50EC508F5090ED890053606360736F7
:101AF0000836E82EF9D70550061007100810D8A4AC
:101B000002D0010E01D0000E016E026A1200000E1A
:101B1000026E040E016E1200033404340A6E0A5081
:101B2000D8A409D0000E016E000E026E000E036EE6
:101B3000000E046E120001C505F502C506F503C5C9
:101B400007F504C508F5200E05D0D89008320732F5
:101B500006320532E82EF9D70550096E038EFF0EC6
:101B60000116FF0E0216FF0E0316000E0416960E47
:101B70000A5E0AAE0DD00A50800A970FD8A0D2D7BD
:101B8000D89004320332023201320A3EF9D70DD026
:101B90001F0E0A6407D0C6D7D89001360236033626
:101BA00004360A060A50D8A4F7D70950D8B408D08A
:101BB000041E031E021E016C000E022203220422D8
:101BC00001C501F502C502F503C503F504C504F519
:101BD0001200000E0F6E000E0E6E07C5D9F408C578
:101BE000DAF4DEC4F6F4DDC4F7F4000EF86E080093
:101BF000F5502A0AD8A433D007C5D9F408C5DAF4B9
:101C0000DE2A000EDD2209C5D9F40AC5DAF4DFC4E4
:101C10000BF5020EDE26DFC40CF5000EDD220BC52F
:101C2000D9F40CC5DAF4DEC40EF5DDC40FF528D006
:101C30000EC501F50FC502F5000E046E0A0E036E07
:101C400033EC90F00D5001240E6E000E02200F6E4A
:101C500007C5D9F408C5DAF4DE2A000EDD2207C56F
:101C6000D9F408C5DAF4DEC4F6F4DDC4F7F4000EE6
:101C7000F86E0800F550D00F0D6E090E0D64D8D720
:101C80000EC507F50FC508F5120004500510D8B4AD
:101C900004D004500510D8A404D0025046EC90F0B3
:101CA000120020EE0AF00450D9260550DA22DE5048
:101CB000DE10D8B416D020EE0AF00450D926055014
:101CC000DA2210EE03F00450E1260550E222DE5045
:101CD000E65CE650800A0A6EDE50800A0A58D8B0E8
:101CE000120020EE03F00450D9260550DA22DEC49B
:101CF00006F5DDC407F504C5D9F405C5DAF4DEC47C
:101D000008F5DDC409F506500824D96E07500920EE
:101D1000DA6E02C5DFF420EE03F00450D926055038
:101D2000DA22DE2A000EDD221200000E0114096EF6
:101D3000000E02140A6E800E03140B6E7F0E041444
:101D40000C6E09500A100B100C10D8A408D0000E0D
:101D5000016E000E026E000E036E000E046E000E89
:101D60000514096E000E06140A6E800E07140B6E21
:101D70007F0E08140C6E09500A100B100C10D8A41A
:101D800008D0000E056E000E066E000E076E000EE7
:101D9000086E055001180AE10650021807E10750C5
:101DA000031804E108500418D8B402D0D8901200E7
:101DB000D8801200BEA10AD014C50BF515C50CF5CC
:101DC00012C50DF513C50EF5EDEC8FF017BE05D05D
:101DD00016C51BF517C51CF504D0000E1C6E000EB1
:101DE0001B6E000E1A6E000E196E0CD0000E036EE4
:101DF000200E026E12C504F513C505F545EC8EF0F4
:101E0000194A1A2A1B50195C1A50800A186E1C5065
:101E1000800A1858D8A0EAD70501BEB1120014C52F
:101E20000BF515C50CF512C50DF513C50EF5EDEC4A
:101E30008FF0120004BE07D00450031002101DE101
:101E40000104D8B01AD001C505F502C506F503C5D1
:101E500007F504C508F5051E061E071E081E052AFF
:101E6000000E06220722082205C501F506C502F567
:101E700007C503F508C504F5120001C501F502C543
:101E800002F503C503F504C504F512009BC59FF5D3
:101E90009CC5A0F50FD099C58CF59AC58DF59F0E00
:101EA00005018E6F050E8F6F9DC590F59EC591F54E
:101EB0003CEC8AF09FC5F6F4A0C5F7F4000EF86E6E
:101EC0000800F5500009D8A4E6D7000E05019A6F66
:101ED000000E996F1200000E2C1A000E2D1A000E23
:101EE0002E1A800E2F1A28C501F529C502F52AC51C
:101EF00003F52BC504F52CC505F52DC506F52EC536
:101F000007F52FC508F572EC87F001C528F502C565
:101F100029F503C52AF504C52BF5120003C509F5FB
:101F200004C50AF501C507F502C508F510D009C5B5
:101F3000D9F40AC5DAF4DF500B6E094A0A2A07C53C
:101F4000D9F408C5DAF40BC5DFF4074A082A0506F8
:101F5000D8A006060528EBE10628D8B41200E7D77A
:101F600001EE50F218EE00F0EE6AE550E150FCE1AF
:101F7000E250FAE101EE00F2500EEE6AE806FDE1F1
:101F800001EEB0F1100EEE6AE806FDE10401080E64
:101F90005D6F000E5E6F000E5F6F0001EBEF85F06E
:101FA00003C505F504C506F501C507F502C508F525
:101FB00005C5F6F406C5F7F4054A062A000EF86EC4
:101FC00007C5D9F408C5DAF4074A082A0800F5C499
:101FD000DFF4DF50D8B41200EBD7000E116E000E04
:101FE000106E0BD00FC502F5036A0DC504F50EC5C2
:101FF00005F545EC8EF0104A112A10500B24D96ECD
:1020000011500C20DA6EDF500F6E0F50D8B4120052
:10201000E9D70150021003100410D8B408D0000E04
:10202000011A000E021A000E031A800E041A01C5CE
:1020300001F502C502F503C503F504C504F5120058
:10204000A30EA76F050EA86F000E996F000E9A6F72
:10205000A1C59BF5A2C59CF5A70E9D6F050E9E6FB1
:1020600046EC8FF0120001500302F3C405F5F4C4EE
:1020700006F501500402F350062602500302F35005
:10208000062605C501F506C502F51200016EB7A2C8
:0A209000FED701C5C9F212001100CD
:020000040020DA
:10000000FFFFFFFFFFFFFFFFFFFFFFFFFFFFFFFF00
:10001000FFFFFFFFFFFFFFFFFFFFFFFFFFFFFFFFF0
:10002000FFFFFFFFFFFFFFFFFFFFFFFFFFFFFFFFE0
:10003000FFFFFFFFFFFFFFFFFFFFFFFFFFFFFFFFD0
:020000040030CA
:100000008C2FFFF79FFFFFFFFFFFFFFFFFFFFFFFAB
:10001000FFFFFFFFFFFFFFFFFFFFFFFFFFFFFFFFF0
:03002000FFFFFFE0
:00000001FF
